{
  "contractName": "CertificateVerification",
  "abi": [
    {
      "inputs": [],
      "stateMutability": "nonpayable",
      "type": "constructor"
    },
    {
      "anonymous": false,
      "inputs": [
        {
          "indexed": false,
          "internalType": "uint256",
          "name": "rollNumber",
          "type": "uint256"
        },
        {
          "indexed": false,
          "internalType": "address",
          "name": "issuerAddress",
          "type": "address"
        },
        {
          "indexed": false,
          "internalType": "bool",
          "name": "isValid",
          "type": "bool"
        }
      ],
      "name": "CertificateIssued",
      "type": "event"
    },
    {
      "anonymous": false,
      "inputs": [
        {
          "indexed": false,
          "internalType": "address",
          "name": "issuerAddress",
          "type": "address"
        },
        {
          "indexed": false,
          "internalType": "string",
          "name": "name",
          "type": "string"
        }
      ],
      "name": "IssuerAdded",
      "type": "event"
    },
    {
      "anonymous": false,
      "inputs": [
        {
          "indexed": false,
          "internalType": "uint256",
          "name": "rollNumber",
          "type": "uint256"
        },
        {
          "indexed": false,
          "internalType": "string",
          "name": "name",
          "type": "string"
        }
      ],
      "name": "StudentAdded",
      "type": "event"
    },
    {
      "inputs": [
        {
          "internalType": "bytes32",
          "name": "",
          "type": "bytes32"
        }
      ],
      "name": "certificates",
      "outputs": [
        {
          "internalType": "uint256",
          "name": "rollNumber",
          "type": "uint256"
        },
        {
          "internalType": "address",
          "name": "issuerAddress",
          "type": "address"
        },
        {
          "internalType": "bool",
          "name": "isValid",
          "type": "bool"
        }
      ],
      "stateMutability": "view",
      "type": "function"
    },
    {
      "inputs": [
        {
          "internalType": "address",
          "name": "",
          "type": "address"
        }
      ],
      "name": "issuers",
      "outputs": [
        {
          "internalType": "string",
          "name": "name",
          "type": "string"
        },
        {
          "internalType": "address",
          "name": "issuerAddress",
          "type": "address"
        },
        {
          "internalType": "bool",
          "name": "exists",
          "type": "bool"
        }
      ],
      "stateMutability": "view",
      "type": "function"
    },
    {
      "inputs": [],
      "name": "owner",
      "outputs": [
        {
          "internalType": "address",
          "name": "",
          "type": "address"
        }
      ],
      "stateMutability": "view",
      "type": "function"
    },
    {
      "inputs": [
        {
          "internalType": "uint256",
          "name": "",
          "type": "uint256"
        }
      ],
      "name": "students",
      "outputs": [
        {
          "internalType": "string",
          "name": "name",
          "type": "string"
        },
        {
          "internalType": "uint256",
          "name": "rollNumber",
          "type": "uint256"
        },
        {
          "internalType": "bool",
          "name": "exists",
          "type": "bool"
        }
      ],
      "stateMutability": "view",
      "type": "function"
    },
    {
      "inputs": [
        {
          "internalType": "uint256",
          "name": "_rollNumber",
          "type": "uint256"
        },
        {
          "internalType": "string",
          "name": "_name",
          "type": "string"
        }
      ],
      "name": "addStudent",
      "outputs": [],
      "stateMutability": "nonpayable",
      "type": "function"
    },
    {
      "inputs": [
        {
          "internalType": "address",
          "name": "_issuerAddress",
          "type": "address"
        },
        {
          "internalType": "string",
          "name": "_name",
          "type": "string"
        }
      ],
      "name": "addIssuer",
      "outputs": [],
      "stateMutability": "nonpayable",
      "type": "function"
    },
    {
      "inputs": [
        {
          "internalType": "uint256",
          "name": "_rollNumber",
          "type": "uint256"
        }
      ],
      "name": "issueCertificate",
      "outputs": [],
      "stateMutability": "nonpayable",
      "type": "function"
    },
    {
      "inputs": [
        {
          "internalType": "uint256",
          "name": "_rollNumber",
          "type": "uint256"
        },
        {
          "internalType": "address",
          "name": "_issuerAddress",
          "type": "address"
        }
      ],
      "name": "verifyCertificate",
      "outputs": [
        {
          "internalType": "bool",
          "name": "",
          "type": "bool"
        }
      ],
      "stateMutability": "view",
      "type": "function"
    }
  ],
  "bytecode": "0x608060405234801561000f575f80fd5b50335f806101000a81548173ffffffffffffffffffffffffffffffffffffffff021916908373ffffffffffffffffffffffffffffffffffffffff16021790555061155e8061005c5f395ff3fe608060405234801561000f575f80fd5b5060043610610086575f3560e01c80638da5cb5b116100595780638da5cb5b1461013c5780638fc0859a1461015a57806394b4652514610176578063d80fa7cf146101a657610086565b806306ead22e1461008a57806338a7543e146100bc57806342ecc52a146100ee578063742f06881461010a575b5f80fd5b6100a4600480360381019061009f9190610a52565b6101c2565b6040516100b393929190610b30565b60405180910390f35b6100d660048036038101906100d19190610bc6565b61027a565b6040516100e593929190610c00565b60405180910390f35b61010860048036038101906101039190610d68565b610352565b005b610124600480360381019061011f9190610df5565b6104ec565b60405161013393929190610e20565b60405180910390f35b61014461053e565b6040516101519190610e55565b60405180910390f35b610174600480360381019061016f9190610e6e565b610561565b005b610190600480360381019061018b9190610ec8565b6107a7565b60405161019d9190610f06565b60405180910390f35b6101c060048036038101906101bb9190610a52565b6107ff565b005b6001602052805f5260405f205f91509050805f0180546101e190610f4c565b80601f016020809104026020016040519081016040528092919081815260200182805461020d90610f4c565b80156102585780601f1061022f57610100808354040283529160200191610258565b820191905f5260205f20905b81548152906001019060200180831161023b57829003601f168201915b505050505090806001015490806002015f9054906101000a900460ff16905083565b6002602052805f5260405f205f91509050805f01805461029990610f4c565b80601f01602080910402602001604051908101604052809291908181526020018280546102c590610f4c565b80156103105780601f106102e757610100808354040283529160200191610310565b820191905f5260205f20905b8154815290600101906020018083116102f357829003601f168201915b505050505090806001015f9054906101000a900473ffffffffffffffffffffffffffffffffffffffff16908060010160149054906101000a900460ff16905083565b5f8054906101000a900473ffffffffffffffffffffffffffffffffffffffff1673ffffffffffffffffffffffffffffffffffffffff163373ffffffffffffffffffffffffffffffffffffffff16146103df576040517f08c379a00000000000000000000000000000000000000000000000000000000081526004016103d690610fec565b60405180910390fd5b60015f8381526020019081526020015f206002015f9054906101000a900460ff1615610440576040517f08c379a000000000000000000000000000000000000000000000000000000000815260040161043790611054565b60405180910390fd5b60405180606001604052808281526020018381526020016001151581525060015f8481526020019081526020015f205f820151815f019081610482919061120f565b50602082015181600101556040820151816002015f6101000a81548160ff0219169083151502179055509050507f9682c9a3e9734a1f8d3a641838a5d7862f4eb29fcbf4bd04e0ccac28ffcfd22782826040516104e09291906112de565b60405180910390a15050565b6003602052805f5260405f205f91509050805f015490806001015f9054906101000a900473ffffffffffffffffffffffffffffffffffffffff16908060010160149054906101000a900460ff16905083565b5f8054906101000a900473ffffffffffffffffffffffffffffffffffffffff1681565b5f8054906101000a900473ffffffffffffffffffffffffffffffffffffffff1673ffffffffffffffffffffffffffffffffffffffff163373ffffffffffffffffffffffffffffffffffffffff16146105ee576040517f08c379a00000000000000000000000000000000000000000000000000000000081526004016105e590610fec565b60405180910390fd5b60025f8373ffffffffffffffffffffffffffffffffffffffff1673ffffffffffffffffffffffffffffffffffffffff1681526020019081526020015f2060010160149054906101000a900460ff161561067c576040517f08c379a000000000000000000000000000000000000000000000000000000000815260040161067390611356565b60405180910390fd5b60405180606001604052808281526020018373ffffffffffffffffffffffffffffffffffffffff1681526020016001151581525060025f8473ffffffffffffffffffffffffffffffffffffffff1673ffffffffffffffffffffffffffffffffffffffff1681526020019081526020015f205f820151815f019081610700919061120f565b506020820151816001015f6101000a81548173ffffffffffffffffffffffffffffffffffffffff021916908373ffffffffffffffffffffffffffffffffffffffff16021790555060408201518160010160146101000a81548160ff0219169083151502179055509050507fbffc9e6add894cdc9f3243f85aaf5e65d6f6284f63658ea53ea9dd241e4276d8828260405161079b929190611374565b60405180910390a15050565b5f8083836040516020016107bc929190611407565b60405160208183030381529060405280519060200120905060035f8281526020019081526020015f2060010160149054906101000a900460ff1691505092915050565b60025f3373ffffffffffffffffffffffffffffffffffffffff1673ffffffffffffffffffffffffffffffffffffffff1681526020019081526020015f2060010160149054906101000a900460ff1661088c576040517f08c379a0000000000000000000000000000000000000000000000000000000008152600401610883906114a2565b60405180910390fd5b60015f8281526020019081526020015f206002015f9054906101000a900460ff166108ec576040517f08c379a00000000000000000000000000000000000000000000000000000000081526004016108e39061150a565b60405180910390fd5b5f8133604051602001610900929190611407565b60405160208183030381529060405280519060200120905060405180606001604052808381526020013373ffffffffffffffffffffffffffffffffffffffff1681526020016001151581525060035f8381526020019081526020015f205f820151815f01556020820151816001015f6101000a81548173ffffffffffffffffffffffffffffffffffffffff021916908373ffffffffffffffffffffffffffffffffffffffff16021790555060408201518160010160146101000a81548160ff0219169083151502179055509050507f6d163c2ee575a34eb6b3f4f12509fd2e50bedaa6d47884252a1d40ee035bfeb782336001604051610a0293929190610e20565b60405180910390a15050565b5f604051905090565b5f80fd5b5f80fd5b5f819050919050565b610a3181610a1f565b8114610a3b575f80fd5b50565b5f81359050610a4c81610a28565b92915050565b5f60208284031215610a6757610a66610a17565b5b5f610a7484828501610a3e565b91505092915050565b5f81519050919050565b5f82825260208201905092915050565b5f5b83811015610ab4578082015181840152602081019050610a99565b5f8484015250505050565b5f601f19601f8301169050919050565b5f610ad982610a7d565b610ae38185610a87565b9350610af3818560208601610a97565b610afc81610abf565b840191505092915050565b610b1081610a1f565b82525050565b5f8115159050919050565b610b2a81610b16565b82525050565b5f6060820190508181035f830152610b488186610acf565b9050610b576020830185610b07565b610b646040830184610b21565b949350505050565b5f73ffffffffffffffffffffffffffffffffffffffff82169050919050565b5f610b9582610b6c565b9050919050565b610ba581610b8b565b8114610baf575f80fd5b50565b5f81359050610bc081610b9c565b92915050565b5f60208284031215610bdb57610bda610a17565b5b5f610be884828501610bb2565b91505092915050565b610bfa81610b8b565b82525050565b5f6060820190508181035f830152610c188186610acf565b9050610c276020830185610bf1565b610c346040830184610b21565b949350505050565b5f80fd5b5f80fd5b7f4e487b71000000000000000000000000000000000000000000000000000000005f52604160045260245ffd5b610c7a82610abf565b810181811067ffffffffffffffff82111715610c9957610c98610c44565b5b80604052505050565b5f610cab610a0e565b9050610cb78282610c71565b919050565b5f67ffffffffffffffff821115610cd657610cd5610c44565b5b610cdf82610abf565b9050602081019050919050565b828183375f83830152505050565b5f610d0c610d0784610cbc565b610ca2565b905082815260208101848484011115610d2857610d27610c40565b5b610d33848285610cec565b509392505050565b5f82601f830112610d4f57610d4e610c3c565b5b8135610d5f848260208601610cfa565b91505092915050565b5f8060408385031215610d7e57610d7d610a17565b5b5f610d8b85828601610a3e565b925050602083013567ffffffffffffffff811115610dac57610dab610a1b565b5b610db885828601610d3b565b9150509250929050565b5f819050919050565b610dd481610dc2565b8114610dde575f80fd5b50565b5f81359050610def81610dcb565b92915050565b5f60208284031215610e0a57610e09610a17565b5b5f610e1784828501610de1565b91505092915050565b5f606082019050610e335f830186610b07565b610e406020830185610bf1565b610e4d6040830184610b21565b949350505050565b5f602082019050610e685f830184610bf1565b92915050565b5f8060408385031215610e8457610e83610a17565b5b5f610e9185828601610bb2565b925050602083013567ffffffffffffffff811115610eb257610eb1610a1b565b5b610ebe85828601610d3b565b9150509250929050565b5f8060408385031215610ede57610edd610a17565b5b5f610eeb85828601610a3e565b9250506020610efc85828601610bb2565b9150509250929050565b5f602082019050610f195f830184610b21565b92915050565b7f4e487b71000000000000000000000000000000000000000000000000000000005f52602260045260245ffd5b5f6002820490506001821680610f6357607f821691505b602082108103610f7657610f75610f1f565b5b50919050565b7f4f6e6c79206f776e65722063616e2063616c6c20746869732066756e6374696f5f8201527f6e00000000000000000000000000000000000000000000000000000000000000602082015250565b5f610fd6602183610a87565b9150610fe182610f7c565b604082019050919050565b5f6020820190508181035f83015261100381610fca565b9050919050565b7f53747564656e7420616c726561647920657869737473000000000000000000005f82015250565b5f61103e601683610a87565b91506110498261100a565b602082019050919050565b5f6020820190508181035f83015261106b81611032565b9050919050565b5f819050815f5260205f209050919050565b5f6020601f8301049050919050565b5f82821b905092915050565b5f600883026110ce7fffffffffffffffffffffffffffffffffffffffffffffffffffffffffffffffff82611093565b6110d88683611093565b95508019841693508086168417925050509392505050565b5f819050919050565b5f61111361110e61110984610a1f565b6110f0565b610a1f565b9050919050565b5f819050919050565b61112c836110f9565b6111406111388261111a565b84845461109f565b825550505050565b5f90565b611154611148565b61115f818484611123565b505050565b5b81811015611182576111775f8261114c565b600181019050611165565b5050565b601f8211156111c75761119881611072565b6111a184611084565b810160208510156111b0578190505b6111c46111bc85611084565b830182611164565b50505b505050565b5f82821c905092915050565b5f6111e75f19846008026111cc565b1980831691505092915050565b5f6111ff83836111d8565b9150826002028217905092915050565b61121882610a7d565b67ffffffffffffffff81111561123157611230610c44565b5b61123b8254610f4c565b611246828285611186565b5f60209050601f831160018114611277575f8415611265578287015190505b61126f85826111f4565b8655506112d6565b601f19841661128586611072565b5f5b828110156112ac57848901518255600182019150602085019450602081019050611287565b868310156112c957848901516112c5601f8916826111d8565b8355505b6001600288020188555050505b505050505050565b5f6040820190506112f15f830185610b07565b81810360208301526113038184610acf565b90509392505050565b7f49737375657220616c72656164792065786973747300000000000000000000005f82015250565b5f611340601583610a87565b915061134b8261130c565b602082019050919050565b5f6020820190508181035f83015261136d81611334565b9050919050565b5f6040820190506113875f830185610bf1565b81810360208301526113998184610acf565b90509392505050565b5f819050919050565b6113bc6113b782610a1f565b6113a2565b82525050565b5f8160601b9050919050565b5f6113d8826113c2565b9050919050565b5f6113e9826113ce565b9050919050565b6114016113fc82610b8b565b6113df565b82525050565b5f61141282856113ab565b60208201915061142282846113f0565b6014820191508190509392505050565b7f4f6e6c79207265676973746572656420697373756572732063616e20697373755f8201527f6520636572746966696361746573000000000000000000000000000000000000602082015250565b5f61148c602e83610a87565b915061149782611432565b604082019050919050565b5f6020820190508181035f8301526114b981611480565b9050919050565b7f53747564656e7420646f6573206e6f74206578697374000000000000000000005f82015250565b5f6114f4601683610a87565b91506114ff826114c0565b602082019050919050565b5f6020820190508181035f830152611521816114e8565b905091905056fea2646970667358221220918685f9560d91e239d4e7606cfc73f42938b7bb60abfae23fbcc1a224f0012164736f6c63430008170033",
  "immutableReferences": {},
  "source": "// SPDX-License-Identifier: MIT\npragma solidity ^0.8.0;\n\ncontract CertificateVerification {\n\n    address public owner;\n    \n    // Struct to represent a student\n    struct Student {\n        string name;\n        uint256 rollNumber;\n        bool exists;\n    }\n    \n    // Struct to represent an issuer\n    struct Issuer {\n        string name;\n        address issuerAddress;\n        bool exists;\n    }\n    \n    // Struct to represent a certificate\n    struct Certificate {\n        uint256 rollNumber;\n        address issuerAddress;\n        bool isValid;\n    }\n\n    // Mapping to store students\n    mapping(uint256 => Student) public students;\n\n    // Mapping to store issuers\n    mapping(address => Issuer) public issuers;\n\n    // Mapping to store certificates\n    mapping(bytes32 => Certificate) public certificates;\n\n    // Event triggered when a new student is added\n    event StudentAdded(uint256 rollNumber, string name);\n\n    // Event triggered when a new issuer is added\n    event IssuerAdded(address issuerAddress, string name);\n\n    // Event triggered when a certificate is issued\n    event CertificateIssued(uint256 rollNumber, address issuerAddress, bool isValid);\n\n    // Modifier to ensure that only the owner can execute certain functions\n    modifier onlyOwner() {\n        require(msg.sender == owner, \"Only owner can call this function\");\n        _;\n    }\n\n    // Modifier to ensure that only registered issuers can issue certificates\n    modifier onlyIssuer() {\n        require(issuers[msg.sender].exists, \"Only registered issuers can issue certificates\");\n        _;\n    }\n\n    constructor() {\n        owner = msg.sender;\n    }\n\n    // Function to add a new student\n    function addStudent(uint256 _rollNumber, string memory _name) public onlyOwner {\n        require(!students[_rollNumber].exists, \"Student already exists\");\n        students[_rollNumber] = Student(_name, _rollNumber, true);\n        emit StudentAdded(_rollNumber, _name);\n    }\n\n    // Function to add a new issuer\n    function addIssuer(address _issuerAddress, string memory _name) public onlyOwner {\n        require(!issuers[_issuerAddress].exists, \"Issuer already exists\");\n        issuers[_issuerAddress] = Issuer(_name, _issuerAddress, true);\n        emit IssuerAdded(_issuerAddress, _name);\n    }\n\n    // Function to issue a certificate\n    function issueCertificate(uint256 _rollNumber) public onlyIssuer {\n        require(students[_rollNumber].exists, \"Student does not exist\");\n        bytes32 certificateId = keccak256(abi.encodePacked(_rollNumber, msg.sender));\n        certificates[certificateId] = Certificate(_rollNumber, msg.sender, true);\n        emit CertificateIssued(_rollNumber, msg.sender, true);\n    }\n\n    // Function to verify a certificate\n    function verifyCertificate(uint256 _rollNumber, address _issuerAddress) public view returns (bool) {\n        bytes32 certificateId = keccak256(abi.encodePacked(_rollNumber, _issuerAddress));\n        return certificates[certificateId].isValid;\n    }\n}\n",
  "sourcePath": "/Users/chaitanyamedam/blockchain-certificate/contracts/demo.sol",
  "compiler": {
    "name": "solc",
    "version": "0.8.23+commit.f704f362.Emscripten.clang"
  },
  "schemaVersion": "3.4.16",
  "updatedAt": "2023-11-13T07:22:03.401Z",
  "devdoc": {
    "kind": "dev",
    "methods": {},
    "version": 1
  },
  "userdoc": {
    "kind": "user",
    "methods": {},
    "version": 1
  }
}