{
  "contractName": "Master",
  "abi": [
    {
      "inputs": [],
      "payable": false,
      "stateMutability": "nonpayable",
      "type": "constructor"
    },
    {
      "constant": false,
      "inputs": [
        {
          "name": "_address",
          "type": "address"
        },
        {
          "name": "_name",
          "type": "string"
        }
      ],
      "name": "createStudent",
      "outputs": [],
      "payable": false,
      "stateMutability": "nonpayable",
      "type": "function"
    },
    {
      "constant": true,
      "inputs": [],
      "name": "listStudentAddresses",
      "outputs": [
        {
          "name": "",
          "type": "address[]"
        }
      ],
      "payable": false,
      "stateMutability": "view",
      "type": "function"
    },
    {
      "constant": true,
      "inputs": [],
      "name": "listIssuerAddresses",
      "outputs": [
        {
          "name": "",
          "type": "address[]"
        }
      ],
      "payable": false,
      "stateMutability": "view",
      "type": "function"
    },
    {
      "constant": true,
      "inputs": [
        {
          "name": "_address",
          "type": "address"
        }
      ],
      "name": "getStudentName",
      "outputs": [
        {
          "name": "",
          "type": "string"
        }
      ],
      "payable": false,
      "stateMutability": "view",
      "type": "function"
    },
    {
      "constant": true,
      "inputs": [
        {
          "name": "_address",
          "type": "address"
        }
      ],
      "name": "getIssuerName",
      "outputs": [
        {
          "name": "",
          "type": "string"
        }
      ],
      "payable": false,
      "stateMutability": "view",
      "type": "function"
    },
    {
      "constant": true,
      "inputs": [
        {
          "name": "_address",
          "type": "address"
        }
      ],
      "name": "getIssuerDetails",
      "outputs": [
        {
          "name": "",
          "type": "string"
        },
        {
          "name": "",
          "type": "string"
        },
        {
          "name": "",
          "type": "string"
        }
      ],
      "payable": false,
      "stateMutability": "view",
      "type": "function"
    },
    {
      "constant": false,
      "inputs": [
        {
          "name": "_address",
          "type": "address"
        },
        {
          "name": "_name",
          "type": "string"
        },
        {
          "name": "_issuerAddress",
          "type": "string"
        },
        {
          "name": "_logoUrl",
          "type": "string"
        }
      ],
      "name": "createIssuer",
      "outputs": [],
      "payable": false,
      "stateMutability": "nonpayable",
      "type": "function"
    },
    {
      "constant": false,
      "inputs": [
        {
          "name": "student",
          "type": "address"
        },
        {
          "name": "courseTitle",
          "type": "string"
        },
        {
          "name": "completionDate",
          "type": "string"
        },
        {
          "name": "expiryDate",
          "type": "string"
        }
      ],
      "name": "createCertificate",
      "outputs": [],
      "payable": false,
      "stateMutability": "nonpayable",
      "type": "function"
    },
    {
      "constant": true,
      "inputs": [
        {
          "name": "student",
          "type": "address"
        },
        {
          "name": "issuer",
          "type": "address"
        },
        {
          "name": "courseTitle",
          "type": "string"
        }
      ],
      "name": "verifyCertificate",
      "outputs": [
        {
          "name": "",
          "type": "uint256"
        }
      ],
      "payable": false,
      "stateMutability": "view",
      "type": "function"
    },
    {
      "constant": true,
      "inputs": [],
      "name": "getStudentCertificates",
      "outputs": [
        {
          "name": "",
          "type": "uint256[]"
        }
      ],
      "payable": false,
      "stateMutability": "view",
      "type": "function"
    },
    {
      "constant": true,
      "inputs": [],
      "name": "getIssuerCertificates",
      "outputs": [
        {
          "name": "",
          "type": "uint256[]"
        }
      ],
      "payable": false,
      "stateMutability": "view",
      "type": "function"
    },
    {
      "constant": true,
      "inputs": [
        {
          "name": "index",
          "type": "uint256"
        }
      ],
      "name": "getCertificateDetails",
      "outputs": [
        {
          "name": "",
          "type": "string"
        },
        {
          "name": "",
          "type": "string"
        },
        {
          "name": "",
          "type": "string"
        },
        {
          "name": "",
          "type": "string"
        },
        {
          "name": "",
          "type": "string"
        }
      ],
      "payable": false,
      "stateMutability": "view",
      "type": "function"
    }
  ],
  "bytecode": "0x608060405234801561001057600080fd5b5033600560006101000a81548173ffffffffffffffffffffffffffffffffffffffff021916908373ffffffffffffffffffffffffffffffffffffffff160217905550612493806100616000396000f3006080604052600436106100ba576000357c0100000000000000000000000000000000000000000000000000000000900463ffffffff16806307ec312a146100bf5780632e0308fb1461017b5780633731c42c1461023757806355183110146102a357806370537f491461030f578063a6d88017146104a3578063a901fe5e146105b8578063b88ece3e1461080e578063c6316e4514610923578063f51a44a6146109ac578063fa6d0f0514610a18578063fffb8f6f14610a84575b600080fd5b3480156100cb57600080fd5b50610100600480360381019080803573ffffffffffffffffffffffffffffffffffffffff169060200190929190505050610b41565b6040518080602001828103825283818151815260200191508051906020019080838360005b83811015610140578082015181840152602081019050610125565b50505050905090810190601f16801561016d5780820380516001836020036101000a031916815260200191505b509250505060405180910390f35b34801561018757600080fd5b506101bc600480360381019080803573ffffffffffffffffffffffffffffffffffffffff169060200190929190505050610cbd565b6040518080602001828103825283818151815260200191508051906020019080838360005b838110156101fc5780820151818401526020810190506101e1565b50505050905090810190601f1680156102295780820380516001836020036101000a031916815260200191505b509250505060405180910390f35b34801561024357600080fd5b5061024c610e38565b6040518080602001828103825283818151815260200191508051906020019060200280838360005b8381101561028f578082015181840152602081019050610274565b505050509050019250505060405180910390f35b3480156102af57600080fd5b506102b8610f3c565b6040518080602001828103825283818151815260200191508051906020019060200280838360005b838110156102fb5780820151818401526020810190506102e0565b505050509050019250505060405180910390f35b34801561031b57600080fd5b50610350600480360381019080803573ffffffffffffffffffffffffffffffffffffffff169060200190929190505050610fca565b60405180806020018060200180602001848103845287818151815260200191508051906020019080838360005b8381101561039857808201518184015260208101905061037d565b50505050905090810190601f1680156103c55780820380516001836020036101000a031916815260200191505b50848103835286818151815260200191508051906020019080838360005b838110156103fe5780820151818401526020810190506103e3565b50505050905090810190601f16801561042b5780820380516001836020036101000a031916815260200191505b50848103825285818151815260200191508051906020019080838360005b83811015610464578082015181840152602081019050610449565b50505050905090810190601f1680156104915780820380516001836020036101000a031916815260200191505b50965050505050505060405180910390f35b3480156104af57600080fd5b506105b6600480360381019080803573ffffffffffffffffffffffffffffffffffffffff169060200190929190803590602001908201803590602001908080601f0160208091040260200160405190810160405280939291908181526020018383808284378201915050505050509192919290803590602001908201803590602001908080601f0160208091040260200160405190810160405280939291908181526020018383808284378201915050505050509192919290803590602001908201803590602001908080601f0160208091040260200160405190810160405280939291908181526020018383808284378201915050505050509192919290505050611298565b005b3480156105c457600080fd5b506105e36004803603810190808035906020019092919050505061152f565b60405180806020018060200180602001806020018060200186810386528b818151815260200191508051906020019080838360005b83811015610633578082015181840152602081019050610618565b50505050905090810190601f1680156106605780820380516001836020036101000a031916815260200191505b5086810385528a818151815260200191508051906020019080838360005b8381101561069957808201518184015260208101905061067e565b50505050905090810190601f1680156106c65780820380516001836020036101000a031916815260200191505b50868103845289818151815260200191508051906020019080838360005b838110156106ff5780820151818401526020810190506106e4565b50505050905090810190601f16801561072c5780820380516001836020036101000a031916815260200191505b50868103835288818151815260200191508051906020019080838360005b8381101561076557808201518184015260208101905061074a565b50505050905090810190601f1680156107925780820380516001836020036101000a031916815260200191505b50868103825287818151815260200191508051906020019080838360005b838110156107cb5780820151818401526020810190506107b0565b50505050905090810190601f1680156107f85780820380516001836020036101000a031916815260200191505b509a505050505050505050505060405180910390f35b34801561081a57600080fd5b50610921600480360381019080803573ffffffffffffffffffffffffffffffffffffffff169060200190929190803590602001908201803590602001908080601f0160208091040260200160405190810160405280939291908181526020018383808284378201915050505050509192919290803590602001908201803590602001908080601f0160208091040260200160405190810160405280939291908181526020018383808284378201915050505050509192919290803590602001908201803590602001908080601f0160208091040260200160405190810160405280939291908181526020018383808284378201915050505050509192919290505050611962565b005b34801561092f57600080fd5b506109aa600480360381019080803573ffffffffffffffffffffffffffffffffffffffff169060200190929190803590602001908201803590602001908080601f0160208091040260200160405190810160405280939291908181526020018383808284378201915050505050509192919290505050611ae8565b005b3480156109b857600080fd5b506109c1611c25565b6040518080602001828103825283818151815260200191508051906020019060200280838360005b83811015610a045780820151818401526020810190506109e9565b505050509050019250505060405180910390f35b348015610a2457600080fd5b50610a2d611cb3565b6040518080602001828103825283818151815260200191508051906020019060200280838360005b83811015610a70578082015181840152602081019050610a55565b505050509050019250505060405180910390f35b348015610a9057600080fd5b50610b2b600480360381019080803573ffffffffffffffffffffffffffffffffffffffff169060200190929190803573ffffffffffffffffffffffffffffffffffffffff169060200190929190803590602001908201803590602001908080601f0160208091040260200160405190810160405280939291908181526020018383808284378201915050505050509192919290505050611db7565b6040518082815260200191505060405180910390f35b606060008090505b600380549050811015610cb2578273ffffffffffffffffffffffffffffffffffffffff16600382815481101515610b7c57fe5b9060005260206000200160009054906101000a900473ffffffffffffffffffffffffffffffffffffffff1673ffffffffffffffffffffffffffffffffffffffff161415610ca557600260008473ffffffffffffffffffffffffffffffffffffffff1673ffffffffffffffffffffffffffffffffffffffff1681526020019081526020016000206000018054600181600116156101000203166002900480601f016020809104026020016040519081016040528092919081815260200182805460018160011615610100020316600290048015610c995780601f10610c6e57610100808354040283529160200191610c99565b820191906000526020600020905b815481529060010190602001808311610c7c57829003601f168201915b50505050509150610cb7565b8080600101915050610b49565b600080fd5b50919050565b606060008090505b600180549050811015610e2d578273ffffffffffffffffffffffffffffffffffffffff16600182815481101515610cf857fe5b9060005260206000200160009054906101000a900473ffffffffffffffffffffffffffffffffffffffff1673ffffffffffffffffffffffffffffffffffffffff161415610e20576000808473ffffffffffffffffffffffffffffffffffffffff1673ffffffffffffffffffffffffffffffffffffffff1681526020019081526020016000206000018054600181600116156101000203166002900480601f016020809104026020016040519081016040528092919081815260200182805460018160011615610100020316600290048015610e145780601f10610de957610100808354040283529160200191610e14565b820191906000526020600020905b815481529060010190602001808311610df757829003601f168201915b50505050509150610e32565b8080600101915050610cc5565b600080fd5b50919050565b606080600080600480549050604051908082528060200260200182016040528015610e725781602001602082028038833980820191505090505b50925060009150600090505b600480549050811015610f33573373ffffffffffffffffffffffffffffffffffffffff16600482815481101515610eb157fe5b906000526020600020906005020160010160009054906101000a900473ffffffffffffffffffffffffffffffffffffffff1673ffffffffffffffffffffffffffffffffffffffff161415610f2657600181018383806001019450815181101515610f1757fe5b90602001906020020181815250505b8080600101915050610e7e565b82935050505090565b60606001805480602002602001604051908101604052809291908181526020018280548015610fc057602002820191906000526020600020905b8160009054906101000a900473ffffffffffffffffffffffffffffffffffffffff1673ffffffffffffffffffffffffffffffffffffffff1681526020019060010190808311610f76575b5050505050905090565b6060806060600080600091505b60038054905082101561128a578573ffffffffffffffffffffffffffffffffffffffff1660038381548110151561100a57fe5b9060005260206000200160009054906101000a900473ffffffffffffffffffffffffffffffffffffffff1673ffffffffffffffffffffffffffffffffffffffff16141561127d57600260008773ffffffffffffffffffffffffffffffffffffffff1673ffffffffffffffffffffffffffffffffffffffff1681526020019081526020016000209050806000018160010182600201828054600181600116156101000203166002900480601f0160208091040260200160405190810160405280929190818152602001828054600181600116156101000203166002900480156111335780601f1061110857610100808354040283529160200191611133565b820191906000526020600020905b81548152906001019060200180831161111657829003601f168201915b50505050509250818054600181600116156101000203166002900480601f0160208091040260200160405190810160405280929190818152602001828054600181600116156101000203166002900480156111cf5780601f106111a4576101008083540402835291602001916111cf565b820191906000526020600020905b8154815290600101906020018083116111b257829003601f168201915b50505050509150808054600181600116156101000203166002900480601f01602080910402602001604051908101604052809291908181526020018280546001816001161561010002031660029004801561126b5780601f106112405761010080835404028352916020019161126b565b820191906000526020600020905b81548152906001019060200180831161124e57829003601f168201915b5050505050905094509450945061128f565b8180600101925050610fd7565b600080fd5b50509193909250565b600080600091505b600180549050821015611522578573ffffffffffffffffffffffffffffffffffffffff166001838154811015156112d357fe5b9060005260206000200160009054906101000a900473ffffffffffffffffffffffffffffffffffffffff1673ffffffffffffffffffffffffffffffffffffffff16141561151557600090505b600380549050811015611514573373ffffffffffffffffffffffffffffffffffffffff1660038281548110151561135257fe5b9060005260206000200160009054906101000a900473ffffffffffffffffffffffffffffffffffffffff1673ffffffffffffffffffffffffffffffffffffffff16141561150757600460a0604051908101604052808873ffffffffffffffffffffffffffffffffffffffff1681526020013373ffffffffffffffffffffffffffffffffffffffff168152602001878152602001868152602001858152509080600181540180825580915050906001820390600052602060002090600502016000909192909190915060008201518160000160006101000a81548173ffffffffffffffffffffffffffffffffffffffff021916908373ffffffffffffffffffffffffffffffffffffffff16021790555060208201518160010160006101000a81548173ffffffffffffffffffffffffffffffffffffffff021916908373ffffffffffffffffffffffffffffffffffffffff16021790555060408201518160020190805190602001906114c49291906123c2565b5060608201518160030190805190602001906114e19291906123c2565b5060808201518160040190805190602001906114fe9291906123c2565b50505050611527565b808060010191505061131f565b5b81806001019250506112a0565b600080fd5b505050505050565b606080606080606060006004805490508710151561154c57600080fd5b60048781548110151561155b57fe5b90600052602060002090600502019050600260008260010160009054906101000a900473ffffffffffffffffffffffffffffffffffffffff1673ffffffffffffffffffffffffffffffffffffffff1673ffffffffffffffffffffffffffffffffffffffff1681526020019081526020016000206000016000808360000160009054906101000a900473ffffffffffffffffffffffffffffffffffffffff1673ffffffffffffffffffffffffffffffffffffffff1673ffffffffffffffffffffffffffffffffffffffff168152602001908152602001600020600001826002018360030184600401848054600181600116156101000203166002900480601f0160208091040260200160405190810160405280929190818152602001828054600181600116156101000203166002900480156116d75780601f106116ac576101008083540402835291602001916116d7565b820191906000526020600020905b8154815290600101906020018083116116ba57829003601f168201915b50505050509450838054600181600116156101000203166002900480601f0160208091040260200160405190810160405280929190818152602001828054600181600116156101000203166002900480156117735780601f1061174857610100808354040283529160200191611773565b820191906000526020600020905b81548152906001019060200180831161175657829003601f168201915b50505050509350828054600181600116156101000203166002900480601f01602080910402602001604051908101604052809291908181526020018280546001816001161561010002031660029004801561180f5780601f106117e45761010080835404028352916020019161180f565b820191906000526020600020905b8154815290600101906020018083116117f257829003601f168201915b50505050509250818054600181600116156101000203166002900480601f0160208091040260200160405190810160405280929190818152602001828054600181600116156101000203166002900480156118ab5780601f10611880576101008083540402835291602001916118ab565b820191906000526020600020905b81548152906001019060200180831161188e57829003601f168201915b50505050509150808054600181600116156101000203166002900480601f0160208091040260200160405190810160405280929190818152602001828054600181600116156101000203166002900480156119475780601f1061191c57610100808354040283529160200191611947565b820191906000526020600020905b81548152906001019060200180831161192a57829003601f168201915b50505050509050955095509550955095505091939590929450565b3373ffffffffffffffffffffffffffffffffffffffff16600560009054906101000a900473ffffffffffffffffffffffffffffffffffffffff1673ffffffffffffffffffffffffffffffffffffffff161415156119be57600080fd5b6119c784611f73565b60606040519081016040528084815260200182815260200183815250600260008673ffffffffffffffffffffffffffffffffffffffff1673ffffffffffffffffffffffffffffffffffffffff1681526020019081526020016000206000820151816000019080519060200190611a3e9291906123c2565b506020820151816001019080519060200190611a5b9291906123c2565b506040820151816002019080519060200190611a789291906123c2565b5090505060038490806001815401808255809150509060018203906000526020600020016000909192909190916101000a81548173ffffffffffffffffffffffffffffffffffffffff021916908373ffffffffffffffffffffffffffffffffffffffff1602179055505050505050565b3373ffffffffffffffffffffffffffffffffffffffff16600560009054906101000a900473ffffffffffffffffffffffffffffffffffffffff1673ffffffffffffffffffffffffffffffffffffffff16141515611b4457600080fd5b611b4d82611f73565b602060405190810160405280828152506000808473ffffffffffffffffffffffffffffffffffffffff1673ffffffffffffffffffffffffffffffffffffffff1681526020019081526020016000206000820151816000019080519060200190611bb79291906123c2565b5090505060018290806001815401808255809150509060018203906000526020600020016000909192909190916101000a81548173ffffffffffffffffffffffffffffffffffffffff021916908373ffffffffffffffffffffffffffffffffffffffff160217905550505050565b60606003805480602002602001604051908101604052809291908181526020018280548015611ca957602002820191906000526020600020905b8160009054906101000a900473ffffffffffffffffffffffffffffffffffffffff1673ffffffffffffffffffffffffffffffffffffffff1681526020019060010190808311611c5f575b5050505050905090565b606080600080600480549050604051908082528060200260200182016040528015611ced5781602001602082028038833980820191505090505b50925060009150600090505b600480549050811015611dae573373ffffffffffffffffffffffffffffffffffffffff16600482815481101515611d2c57fe5b906000526020600020906005020160000160009054906101000a900473ffffffffffffffffffffffffffffffffffffffff1673ffffffffffffffffffffffffffffffffffffffff161415611da157600181018383806001019450815181101515611d9257fe5b90602001906020020181815250505b8080600101915050611cf9565b82935050505090565b60008060008091505b600480549050821015611f6557600482815481101515611ddc57fe5b906000526020600020906005020190508573ffffffffffffffffffffffffffffffffffffffff168160000160009054906101000a900473ffffffffffffffffffffffffffffffffffffffff1673ffffffffffffffffffffffffffffffffffffffff16148015611e9a57508473ffffffffffffffffffffffffffffffffffffffff168160010160009054906101000a900473ffffffffffffffffffffffffffffffffffffffff1673ffffffffffffffffffffffffffffffffffffffff16145b8015611f485750611f47816002018054600181600116156101000203166002900480601f016020809104026020016040519081016040528092919081815260200182805460018160011615610100020316600290048015611f3c5780601f10611f1157610100808354040283529160200191611f3c565b820191906000526020600020905b815481529060010190602001808311611f1f57829003601f168201915b5050505050856120f5565b5b15611f5857600182019250611f6a565b8180600101925050611dc0565b600092505b50509392505050565b60008090505b600180549050811015612005578173ffffffffffffffffffffffffffffffffffffffff16600182815481101515611fac57fe5b9060005260206000200160009054906101000a900473ffffffffffffffffffffffffffffffffffffffff1673ffffffffffffffffffffffffffffffffffffffff161415611ff857600080fd5b8080600101915050611f79565b600090505b600380549050811015612096578173ffffffffffffffffffffffffffffffffffffffff1660038281548110151561203d57fe5b9060005260206000200160009054906101000a900473ffffffffffffffffffffffffffffffffffffffff1673ffffffffffffffffffffffffffffffffffffffff16141561208957600080fd5b808060010191505061200a565b600560009054906101000a900473ffffffffffffffffffffffffffffffffffffffff1673ffffffffffffffffffffffffffffffffffffffff168273ffffffffffffffffffffffffffffffffffffffff1614156120f157600080fd5b5050565b600080612102848461210b565b14905092915050565b600060608060008086935085925083519150818351101561212b57825191505b600090505b8181101561236e57828181518110151561214657fe5b9060200101517f010000000000000000000000000000000000000000000000000000000000000090047f0100000000000000000000000000000000000000000000000000000000000000027effffffffffffffffffffffffffffffffffffffffffffffffffffffffffffff191684828151811015156121c157fe5b9060200101517f010000000000000000000000000000000000000000000000000000000000000090047f0100000000000000000000000000000000000000000000000000000000000000027effffffffffffffffffffffffffffffffffffffffffffffffffffffffffffff1916101561225c577fffffffffffffffffffffffffffffffffffffffffffffffffffffffffffffffff94506123b8565b828181518110151561226a57fe5b9060200101517f010000000000000000000000000000000000000000000000000000000000000090047f0100000000000000000000000000000000000000000000000000000000000000027effffffffffffffffffffffffffffffffffffffffffffffffffffffffffffff191684828151811015156122e557fe5b9060200101517f010000000000000000000000000000000000000000000000000000000000000090047f0100000000000000000000000000000000000000000000000000000000000000027effffffffffffffffffffffffffffffffffffffffffffffffffffffffffffff1916111561236157600194506123b8565b8080600101915050612130565b8251845110156123a0577fffffffffffffffffffffffffffffffffffffffffffffffffffffffffffffffff94506123b8565b8251845111156123b357600194506123b8565b600094505b5050505092915050565b828054600181600116156101000203166002900490600052602060002090601f016020900481019282601f1061240357805160ff1916838001178555612431565b82800160010185558215612431579182015b82811115612430578251825591602001919060010190612415565b5b50905061243e9190612442565b5090565b61246491905b80821115612460576000816000905550600101612448565b5090565b905600a165627a7a7230582021eb91d3bdfac1130d45ffe72cfb09f42193881c4f20aba37f32999e78ffaaf00029",
  "source": "pragma solidity ^0.4.23;\n\ncontract Master {\n    \n    struct Certificate {\n        address student;\n        address issuer;\n        string courseTitle;\n        string completionDate;\n        string expiryDate;\n    }\n    \n    struct Student {\n        string name;\n    }\n    \n    struct Issuer {\n        string issuerName;\n        string logoUrl;\n        string issuerAddress;\n    }\n\n    mapping (address => Student) private students;\n    address[] private studentAddresses;\n    \n    mapping (address => Issuer) private issuers;\n    address[] private issuerAddresses;\n\n\tCertificate[] private certificates;\n\n    address private owner;\n    \n    constructor() public {\n        owner = msg.sender;\n    }\n\n    // create new student\n    function createStudent(address _address, string _name) public {\n        \n        // Check current user is owner\n        require(owner == msg.sender);\n\n\t\t// Check if account already exists\n\t\tvalidateAddress(_address);\n\t\t\n        // Add a new student contract to students map\n         students[_address] = Student({\n            name: _name\n        });\n        \n        // Add the address to studentAddresses array\n        studentAddresses.push(_address);\n    }\n    \n    function listStudentAddresses() public view returns (address[]) {\n        \n        return studentAddresses;\n    }\n\n    function listIssuerAddresses() public view returns (address[]) {\n        \n        return issuerAddresses;\n    }\n\n    function getStudentName(address _address) public view returns (string) {\n\t\t\n        for (uint count = 0; count < studentAddresses.length; count++) {\n            if (studentAddresses[count] == _address) {\n                return students[_address].name;\n            }\n        }\n\t\t\n        revert();\n    }\n\n\tfunction getIssuerName(address _address) public view returns (string) {\n\t\t\n        for (uint count = 0; count < issuerAddresses.length; count++) {\n            if (issuerAddresses[count] == _address) {\n                return issuers[_address].issuerName;\n            }\n        }\n\t\t\n        revert();\n    }\n\n\tfunction getIssuerDetails(address _address) public view returns (string, string, string) {\n\n        for (uint count = 0; count < issuerAddresses.length; count++) {\n            if (issuerAddresses[count] == _address) {\n\t\t\t\tIssuer storage issuer = issuers[_address];\n                return (issuer.issuerName, issuer.logoUrl, issuer.issuerAddress);\n            }\n        }\n\t\t\n        revert();\n    }\n\n    // create new issuer\n    function createIssuer(address _address, string _name, string _issuerAddress, string _logoUrl) public {\n        \n        // Check current user is owner \n        require(owner == msg.sender);\n\n\t\t// Check if account already exists\n\t\tvalidateAddress(_address);\n\t\t\n        // Add a new issuer contract to issuers map\n         issuers[_address] = Issuer({\n            issuerName: _name,\n            issuerAddress: _issuerAddress,\n            logoUrl: _logoUrl\n        });\n        \n        // Add the address to issuerAddresses array\n        issuerAddresses.push(_address);\n    }\n\t\n\tfunction validateAddress(address _address) view private {\n\t\t\n\t\t// Check if account already exists\n\t\tfor (uint count = 0; count < studentAddresses.length; count++) {\n            if (studentAddresses[count] == _address) {\n                revert();\n            }\n        }\n\t\t\n\t\tfor (count = 0; count < issuerAddresses.length; count++) {\n            if (issuerAddresses[count] == _address) {\n                revert();\n            }\n        }\n\n\t\tif (_address == owner) {\n            revert();\n        }\n\t}\n\n    // create new certificate (issuer)\n    function createCertificate(address student, string courseTitle, string completionDate, string expiryDate) public {\n\n\t\tfor (uint studentCount = 0; studentCount < studentAddresses.length; studentCount++) {\n            if (studentAddresses[studentCount] == student) {\n                for (uint issuerCount = 0; issuerCount < issuerAddresses.length; issuerCount++) {\n\t\t\t\t\tif (issuerAddresses[issuerCount] == msg.sender) {\n\t\t\t\t\t\tcertificates.push(Certificate({\n\t\t\t\t\t\t\tstudent: student,\n\t\t\t\t\t\t\tissuer: msg.sender,\n\t\t\t\t\t\t\tcourseTitle: courseTitle,\n\t\t\t\t\t\t\tcompletionDate: completionDate,\n\t\t\t\t\t\t\texpiryDate: expiryDate\n\t\t\t\t\t\t}));\n\t\t\t\t\t\treturn;\n\t\t\t\t\t}\n\t\t\t\t}\n            }\n        }\n\t\t\n\t\trevert();\n    }\n    \n    // Verify a certificate\n    function verifyCertificate(address student, address issuer, string courseTitle) public view returns (uint) {\n        \n\t\tfor (uint count = 0; count < certificates.length; count++) {\n\t\t\tCertificate storage certificate = certificates[count];\n\t\t\tif (certificate.student == student && certificate.issuer == issuer && equal(certificate.courseTitle, courseTitle)) {\n\t\t\t\treturn count + 1;\n\t\t\t}\n\t\t}\n\t\t\n\t\t// validate expiry date\n\t\t\n\t\treturn 0;\n    }\n\n    // Student to query his/her own certificates\n\tfunction getStudentCertificates() public view returns (uint[]) {\n\t    \n\t    uint[] memory studentCertificates = new uint[](certificates.length);\n\t    uint index = 0;\n\t    for (uint count = 0; count < certificates.length; count++) {\n\t        if (certificates[count].student == msg.sender) {\n\t\t\t    studentCertificates[index++] = count + 1;\n\t        }\n\t\t}\n\t\treturn studentCertificates;\n\t}\n\t\n\t// Issuer to query issued certificates\n\tfunction getIssuerCertificates() public view returns (uint[]) {\n\t    \n\t    uint[] memory issuedCertificates = new uint[](certificates.length);\n\t    uint index = 0;\n\t    for (uint count = 0; count < certificates.length; count++) {\n\t        if (certificates[count].issuer == msg.sender) {\n\t\t\t    issuedCertificates[index++] = count + 1;\n\t        }\n\t\t}\n\t\treturn issuedCertificates;\n\t}\n\n\tfunction getCertificateDetails(uint index) public view returns (string, string, string, string, string) {\n\n\t\trequire(index < certificates.length);\n\t\tCertificate storage certificate = certificates[index];\n\t\treturn (issuers[certificate.issuer].issuerName, students[certificate.student].name, certificate.courseTitle, certificate.completionDate, certificate.expiryDate);\n\t}\n\n\tfunction compare(string _a, string _b) private pure returns (int) {\n\n        bytes memory a = bytes(_a);\n        bytes memory b = bytes(_b);\n        uint minLength = a.length;\n        if (b.length < minLength) minLength = b.length;\n        for (uint i = 0; i < minLength; i ++)\n            if (a[i] < b[i])\n                return -1;\n            else if (a[i] > b[i])\n                return 1;\n        if (a.length < b.length)\n            return -1;\n        else if (a.length > b.length)\n            return 1;\n        else\n            return 0;\n    }\n\n    function equal(string _a, string _b) private pure returns (bool) {\n\n        return compare(_a, _b) == 0;\n    }\n    \n}",
  "sourcePath": "/Users/chaitanyamedam/blockchain-certificate/contracts/Master.sol",
  "compiler": {
    "name": "solc",
    "version": "0.4.26+commit.4563c3fc.Emscripten.clang"
  },
  "schemaVersion": "3.4.16",
  "updatedAt": "2023-11-21T02:50:09.163Z",
  "networkType": "ethereum",
  "devdoc": {
    "methods": {}
  },
  "userdoc": {
    "methods": {}
  }
}